:02000002B0004C
:1040000000400B00EA520B00000006000C00050205
:084010000401B41400000000DB
:0440180010500B0039
:10401C00034613F8012B002AFBD1181A01387047FC
:10402C0009480A49884208B505D0094A824202D09B
:10403C00121A00F03DFF0748074A0021121A00F03F
:10404C0045FF014808BD00BF40E6032050520B005D
:10405C00ACE60320ACE60320F0E7032070B5074E76
:10406C00074C00F0F1FDA41BA4080025AC4200D1C4
:10407C0070BD56F8043B98470135F7E708520B0022
:10408C002C520B0000F013B808B500F026F8BDE870
:10409C00084000F091BD00F0FDB900F003BA0078C3
:1040AC00B0FA80F04009704701230370704708B5DF
:1040BC0000F0D2FE4FF4165100F09AFC00F0CCFE4A
:1040CC0003681B6998470021032000F02DFEBDE812
:1040DC0008400121022000F027BE38B500F0BCFEDC
:1040EC0003681B699847002823DD00F0B5FE0368C0
:1040FC005B699847C0B23F2806D03038C1B2BDE8E2
:10410C003840022000F021BE00F0A6FE0546032038
:10411C0000F034FE041E0ADA2D21284600F0C4FB00
:10412C00614228460A22BDE8384000F0C0BB214657
:10413C00F7E738BD08B50120002100F027F9064B40
:10414C000022C3E90022A2F580329A60BDE8084043
:10415C00032000F013B900BFACE6032008B5024BF6
:10416C001B685B6C019308BD4802030008B5024B49
:10417C001B685B68019308BD1802030008B5024B6D
:10418C001B685B69019308BD1802030008B5024B5C
:10419C001B689B68019308BD2C02030008B5024BF9
:1041AC001B68DB68019308BD2C02030008B5024BA9
:1041BC001B681B69019308BD2C02030008B5024B58
:1041CC001B685B69019308BD2C02030008B5024B08
:1041DC001B681B6A019308BD2802030008B5024B3B
:1041EC001B685B6A019308BD2802030008B5024BEB
:1041FC001B689B6A019308BD2802030008B5024B9B
:10420C001B68DB6A019308BD2802030008B5024B4A
:10421C001B681B6B019308BD2802030008B5024BF9
:10422C001B685B6B019308BD2802030008B5024BA9
:10423C001B681B6C019308BD2802030008B5024BD8
:10424C001B685B69019308BD6402030008B5024B4F
:10425C001B689B68019308BD6802030008B5024BFC
:10426C001B68DB68019308BD6802030008B5024BAC
:10427C001B68DB69019308BD3002030008B5024BD3
:10428C001B681B6A019308BD3002030008B5024B82
:10429C001B68DB68019308BD3C02030008B5024BA8
:1042AC001B681B69019308BD3C02030008B5024B57
:1042BC001B685B69019308BD3C02030008B5024B07
:1042CC001B689B69019308BD3C02030008B5024BB7
:1042DC001B68DB69019308BD3C02030008B5024B67
:1042EC001B681B6A019308BD3C02030008B5024B16
:1042FC001B689B6A019308BD3C02030008B5024B86
:10430C001B68DB6A019308BD3C02030008B5024B35
:10431C001B681B6C019308BD3C02030008B5024BE3
:10432C001B681B68019308BD4C02030008B5024BC7
:10433C001B681B69019308BD4C02030008B5024BB6
:10434C001B685B69019308BD4C02030008B5024B66
:10435C001B689B69019308BD4C02030008B5024B16
:10436C001B68DB69019308BD4C02030008B5024BC6
:10437C001B681B6A019308BD4C02030008B5024B75
:10438C001B685B68019308BD2002030008B5024B53
:10439C001B68DB6A019308BD2002030008B5034BC0
:1043AC001B68D3F88830019308BD0000200203007D
:1043BC0008B5034B1B68D3F89430019308BD00007B
:1043CC002002030008B5024B1B68DB6B019308BD90
:1043DC004402030008B5024B1B685B68019308BDDF
:1043EC004002030008B5024B1B689B68019308BD93
:1043FC004002030008B5024B1B68DB68019308BD43
:10440C004002030008B5024B1B681B69019308BDF1
:10441C004002030008B5024B1B685B69019308BDA1
:10442C004002030008B5024B1B689B69019308BD51
:10443C004002030008B5024B1B68DB69019308BD01
:10444C004002030008B5024B1B681B6A019308BDB0
:10445C004002030008B5024B1B681B6B019308BD9F
:10446C004002030008B5024B1B685B6B019308BD4F
:10447C004002030008B5024B1B681B6C019308BD7E
:10448C004002030008B5024B1B685B6C019308BD2E
:10449C004002030008B5024B1B681B68019308BD62
:1044AC001C02030008B5024B1B685B68019308BD36
:1044BC001C02030008B5024B1B681B6C019308BD62
:1044CC001C02030008B5024B1B685B6C019308BD12
:1044DC001C020300024800230360FFF73FBE00BF2D
:1044EC00B8E60320002240681146FFF7ABBF00225C
:1044FC0040681146FFF7B6BF40680022FFF7AABF1D
:10450C004068002281F00101FFF794BF002340684E
:10451C001A461946FFF786BF002340681A4619460B
:10452C00FFF778BF002240681146FFF76BBF0022EF
:10453C0040681146FFF756BF406800220221FFF782
:10454C0059BF002340681A46FFF744BF024B0322B1
:10455C005A60024A1A607047BCE603202C500B00CC
:10456C007047F8B5064615460C468F18BC4206D067
:10457C00336814F8011B9B6830469847F6E72846C9
:10458C00F8BD007C0022FFF721BE007C0021FFF764
:10459C0025BE007C0021FFF729BE007C0021FFF71F
:1045AC002DBE007C0021FFF731BE10B5142104464E
:1045BC00FFF773FD204610BD38B5044615464FF481
:1045CC007A730022C4E90123094B21740846236045
:1045DC002946FFF72BFEBF3008D16B69DB0705D5E9
:1045EC006868FFF75FFFE868FFF75CFF204638BD9F
:1045FC0068500B00704710B518210446FFF74DFDAD
:10460C00204610BDF0B5037D062B8DB00E4600F193
:10461C0004074FF0000412D000F1080515F8011D35
:10462C000A22304600F043F9AF42044419D0002C62
:10463C00F4D02E21304600F037F90444EEE72F2356
:10464C006A4639460A208DF80040FFF7F7FD6846A8
:10465C00FFF7DEFC33680246DB6869463046984754
:10466C00044620460DB0F0BD10B5054B0446112292
:10467C0040F8043B002100F029FC204610BD00BF8F
:10468C0090500B000346074A10B543F8042B01F178
:10469C00100251F8044B43F8044B9142F9D10A78BB
:1046AC001A7010BD90500B0010B59DF8084044EAEC
:1046BC00032343EA024242EA016104234160037589
:1046CC0010BD000007B5064B0360CB7800938B78C8
:1046DC004A780978FFF7E8FF03B05DF804FB00BFE8
:1046EC0090500B00014B024A1A607047C4E603203D
:1046FC009C500B00002340681A46FFF76BBE4068C5
:10470C0000220221FFF776BE002240681146FFF717
:10471C0069BE002240681146FFF774BE0023406852
:10472C001A461946FFF776BE002340681A4619460A
:10473C00FFF778BE40680021FFF79CBE406800215F
:10474C00FFF7A0BE4068002281F00101FFF772BEA6
:10475C0040680022FFF77EBE002240681146FFF73A
:10476C0081BE002240681146FFF76CBE2DE9F04374
:10477C0095B014460D460746FFF776FF00211C2224
:10478C000DA8009100F0A2FB40230C9320466B4631
:10479C000CAA0021FFF762FD044600284BD102460B
:1047AC0001216868FFF72EFE0221804622466868C8
:1047BC00FFF728FE009E81462146002E3BD00029A3
:1047CC0039D17368022B03D00A2B11D0F669F4E7A8
:1047DC00B8F1000FFAD0716906A8043107ADFFF7E4
:1047EC0071FF0FCD3C1D0FC42B6823704146EDE7C4
:1047FC00B9F1000FEAD07469102201A800F066FB31
:10480C0006238DF8143001AD04F108031834186830
:10481C0059682A4603C20833A3421546F7D101A9A9
:10482C0006A807ADFFF72EFF0FCD3C1D0FC42B685C
:10483C0023704946CAE70098FFF708FD384615B0C3
:10484C00BDE8F083024B034A1A6000225A6070479D
:10485C00C8E60320A8500B00F8B506460D468F1885
:10486C000024BD420CD0336815F8011B9B68304600
:10487C009847031E01DB1C44F3E7002C08BF1C46C1
:10488C002046F8BD13B50446084659B10191FFF70F
:10489C00BFFB23680199DB680246204602B0BDE8E5
:1048AC001040184702B010BD03689B68184730B51C
:1048BC008BB00023012A8DF8243098BF0A2209AC52
:1048CC000D46B1FBF2F101FB125303F0FF03092B70
:1048DC0094BF30333733DBB2AA4204F8013DEFD931
:1048EC002146FFF7CFFF0BB030BD0000014B00227B
:1048FC009A607047D0E6032010B504460846217034
:10490C00FFF7B4FC00236360204610BD054B022268
:10491C001A60054B054A9A600020C3E90000FFF7B6
:10492C002DBD00BFECE60320E0E603200000FFFFF6
:10493C00024B1A68024B1A60704700BF40E6032016
:10494C00F0E6032070474174704708B5007CFFF710
:10495C00CDFC20EAE07008BD08B5007CFFF79EFC9A
:10496C0020EAE07008BD08B5007CFFF7A7FC40EA20
:10497C00E07008BD08B5007CFFF798FC40EAE070D9
:10498C0008BD007CFFF7A2BC37B5457C04462DB1B1
:10499C00207C03B0BDE83040FFF778BC007C01916F
:1049AC00FFF7A4FC00280199F2DC284603B030BDC7
:1049BC0010B514210446FFF770FB204610BD000013
:1049CC0010B54FF47A730446084611460022C4E928
:1049DC000123044B2360012320746374FFF796FCBE
:1049EC00204610BD00510B00007C0023FFF786BC55
:1049FC000022FFF7F9BF417470477047704708B544
:104A0C000021007CFFF7A2FC40EAE07008BD08B56D
:104A1C000121007CFFF79AFC40EAE07008BD08B564
:104A2C00007CFFF78BFC20EAE07008BD08B5007C29
:104A3C00FFF77CFC20EAE07008BD13B50446007C4F
:104A4C000191FFF77BFC0028019901DC607C20B10F
:104A5C00207CFFF783FC20EAE07002B010BD007CE4
:104A6C00FFF784BC10B514210446FFF716FB204653
:104A7C0010BD000010B54FF47A73044608460021AF
:104A8C00C4E90113044B23600123207463741146A1
:104A9C00FFF744FC204610BD30510B0010B514221A
:104AAC000446002100F012FA204610BD10B50F4C40
:104ABC0088B003A8FFF7F2FF2178BFF35B8F11F0EA
:104ACC0001010FD120460191FFF7E9FA019948B194
:104ADC0003AA0748FFF7CEFF2046FFF7E5FA054883
:104AEC0000F0E0F9024808B010BD00BFF4E6032066
:104AFC00F8E60320074A0B00002240681146FFF736
:104B0C0081BC002240681146FFF79CBC0022406823
:104B1C001146FFF7A7BC40680022FFF79BBC40681A
:104B2C00002281F00101FFF785BC002340681A4682
:104B3C001946FFF777BC002340681A461946FFF761
:104B4C0069BC002240681146FFF74CBC406800224B
:104B5C000221FFF74FBC002340681A46FFF73ABC0E
:104B6C00024B04225A60024A1A6070470CE7032079
:104B7C0060510B00014B1860704700BF44E60320E6
:104B8C0008B50B4B43B1FFF791FF03681B699847BE
:104B9C00002801DDAFF30080064B43B100F05CF957
:104BAC0003681B699847002801DDAFF3008008BD3E
:104BBC00000000000000000008B5FFF7E1FFFFF760
:104BCC00DDFA014B186008BD28E703200548064AAA
:104BDC00064908B5121A00F06BF9054B054A1A6024
:104BEC0008BD00BF00F4032004F40320BC520B00EA
:104BFC0000F403201E1C279A07B5002300931A46C5
:104C0C006FF07701FFF7D4FB03B05DF804FB0000F5
:104C1C0007B543880A2B08D0502B0BD1094B1B68C6
:104C2C004BB103B05DF804EB1847FFF7E5FF03B099
:104C3C005DF804FB002300931A466FF07701FFF731
:104C4C00B7FBF4E718E7032010B512480021FFF773
:104C5C0039FC114B1A68114B9A42114B0CBF0122B3
:104C6C0000221A7001D0FFF7B1FFFFF77FFA04465C
:104C7C0000F034F90B4B13B12046AFF30080002148
:104C8C000848FFF79FFBBDE8104007480021FFF7DD
:104C9C0085BB00BF814B0B0000F403201E1C279A20
:104CAC0014E70320000000001D4C0B00232813B553
:104CBC0002D9002002B010BDA0F10B03022B1AD8B0
:104CCC00174C2178BFF35B8F11F001010BD12046FB
:104CDC000191FFF7E4F9019928B11248FFF70CFE96
:104CEC002046FFF7E1F90F4B1878FFF7C7FA0028B9
:104CFC00DFD10120DEE7012809D800F06DF8002192
:104D0C00007CFFF78BFA80F00100C0B2D2E70938C3
:104D1C000128EED800F0A0F8007CFFF7DFFAF2E7EC
:104D2C001CE7032020E70320232838B504460D4652
:104D3C000AD8FF2908D0FFF7B9FF28B12946204629
:104D4C00BDE83840FFF722BA38BD38B504460D46E9
:104D5C00FFF724FAFF2810D0062804D84D2323FA95
:104D6C0000F0C30709D42046FFF7A0FF28B129465D
:104D7C002046BDE83840FFF719BA38BD10B50446D7
:104D8C00FFF70CFA031FDBB2012B08D92046FFF703
:104D9C008DFF20B12046BDE81040FFF70FBA002070
:104DAC0010BD704738B50A4B0360012304464361BC
:104DBC000849202000F074F8202560600549A560A2
:104DCC00284600F06DF8C4E90305204638BD00BF45
:104DDC001800010094510B0030B50E4D2978BFF32B
:104DEC005B8F11F0010487B011D12846FFF757F9FA
:104DFC0068B16846FFF7D6FF6A4621460648FFF7BA
:104E0C00DBFB2846FFF750F9044800F04BF802484A
:104E1C0007B030BD2CE7032030E70320AF4D0B006B
:104E2C007047000038B5044614252A46002100F0CE
:104E3C004DF825804025074925812846258200F01C
:104E4C002FF804496060284600F02AF8E0602046FC
:104E5C0038BD00BF94510B0030B50E4D2978BFF30F
:104E6C005B8F11F0010487B011D12846FFF717F9B9
:104E7C0068B101A8FFF7D6FF01AA21460648FFF743
:104E8C009FFD2846FFF710F9044800F00BF8024884
:104E9C0007B030BD44E7032048E703202D4E0B003C
:104EAC00FFF7F9B8002301461A46184600F044B83B
:104EBC000A44914200F1FF3300D1704710B511F84C
:104ECC00014B03F8014F9142F9D110BD0244034646
:104EDC00934200D1704703F8011BF9E738B5104B2A
:104EEC001D68AB6B0446B3B91820FFF7D3FA024622
:104EFC00A86320B90B4B0C484221FFF7DBFA0B4996
:104F0C000B4BC0E900130B4B83600B2383810021F7
:104F1C000120C2E90401AB6B00221C615A6138BD4F
:104F2C0044E6032095510B00AC510B000E33CDAB76
:104F3C0034126DE6ECDE05002DE9F843DFF8B8809D
:104F4C000646D8F800001F460D46914600F056F86C
:104F5C00254B1C6834B9254C1C60254B13B11B68C0
:104F6C00C4F8883063681F2B07DDD8F8000000F008
:104F7C0047F84FF0FF30BDE8F8834EB3D4F8880003
:104F8C0088B91C4B23B9D8F8000000F038F8F0E7CA
:104F9C004FF48470FFF77EFA0028F4D00023C0E9A8
:104FAC004033C4F88800636840F8239001229A408B
:104FBC0000EB8301D0F800311343C0F80031022E0E
:104FCC00C1F8807002BFD0F804311343C0F804312B
:104FDC006368D8F800005A1C0233626044F823500E
:104FEC0000F00EF80020C6E7E8E703205CE703209A
:104FFC0000000000A1440B00A8E603207047704796
:10500C00704700002D400B0069400B0091400B00D5
:10501C0095400B00000000000000000000000000A4
:10502C004F450B0045450B003B450B0031450B0034
:10503C0025450B0019450B0041470B0049470B0058
:10504C000D450B0005450B00FB440B00F1440B0018
:10505C0079470B0000000000000000006D450B00BC
:10506C00B7450B008F450B006F450B0097450B00A8
:10507C009F450B00A7450B00AF450B00000000003F
:10508C000000000011460B0001460B0003460B000C
:10509C0061707000000000000000000001470B0070
:1050AC000B470B0015470B001F470B0029470B0044
:1050BC0035470B0041470B0049470B0051470B008C
:1050CC005D470B0065470B006F470B0079470B00E2
:1050DC0025592D256D2D25645425483A254D3A2505
:1050EC0053257A0061736374696D650000000000DC
:1050FC000000000051490B00BD490B0095490B0005
:10510C0065480B0065490B0081490B0073490B0086
:10511C008F490B0053490B0057490B00000000004E
:10512C0000000000094A0B00714A0B00474A0B00B3
:10513C0065480B00394A0B000B4A0B001B4A0B004D
:10514C006B4A0B002B4A0B00034A0B0000000000BB
:10515C0000000000634B0B00594B0B004F4B0B0036
:10516C00054B0B00434B0B00374B0B0041470B001F
:10517C0049470B002B4B0B00234B0B00194B0B001F
:10518C000F4B0B0079470B00005245454E54206DD8
:10519C00616C6C6F63207375636365656465640033
:1051AC002F746D702F6A656E6B696E732D47434358
:1051BC002D31302D706970656C696E652D34385FDA
:1051CC0032303230313132345F3136303631383082
:1051DC003633392F7372632F6E65776C69622F6E5D
:1051EC0065776C69622F6C6962632F7374646C6988
:1051FC00622F72616E642E630000000041410B004F
:10520C00E1440B0059450B00F1460B0051480B00D3
:10521C00F9480B0019490B003D490B006D4B0B0075
:10522C00040000001400000003000000474E55006D
:10523C00A292162B89D890868F2927A625912CD936
:04524C0071594E66E0
:10525000F0500B0048E603200000000000000000B2
:10526000000000000000000000000000000000003E
:10527000000000000000000000000000000000002E
:10528000000000000000000000000000000000001E
:10529000000000000000000000000000000000000E
:1052A00000000000000000000000000000000000FE
:0C52B0000000000000000000ECE70320FC
:0452BC0000000000EE
:1052C60000000102030405060708090A0B0C0D0E6F
:1052D6000F101112131415161718191A1B1C1D1E60
:0452E6001F2028005D
:0452EA0078563412AC
:04000003B000401CED
:00000001FF
